S01500005444543432303047726F7570312E737265631F
S11300000C9426010C9443010C9443010C94430179
S11300100C9443010C9443010C9443010C9443014C
S11300200C9443010C9443010C9443010C9443013C
S11300300C9443010C9443010C9443010C9443012C
S11300400C9443010C9443010C9443010C9443011C
S11300500C9443010C9443010C9443010C9443010C
S11300600C9443010C9443010C9443010C944301FC
S1130070000000000000005F0000000700070014FB
S11300807F147F14242A7F2A1223130864623649BA
S11300905522500005030000001C224100004122AB
S11300A01C00082A1C2A0808083E080800503000D2
S11300B00008080808080060600000201008040216
S11300C03E5149453E00427F40004261514946212C
S11300D041454B311814127F1027454545393C4A98
S11300E049493001710905033649494936064949E8
S11300F0291E00363600000056360000000814227F
S11301004114141414144122140800020151090664
S1130110324979413E7E1111117E7F494949363E6B
S1130120414141227F4141221C7F494949417F0984
S11301300901013E414151327F0808087F00417F97
S113014041002040413F017F081422417F4040404C
S1130150407F0204027F7F0408107F3E4141413EFC
S11301607F090909063E4151215E7F091929464646
S11301704949493101017F01013F4040403F1F206F
S113018040201F7F2018207F631408146303047821
S11301900403615149454300007F414102040810B2
S11301A02041417F000004020102044040404040DD
S11301B0000102040020545454787F4844443838E1
S11301C044444420384444487F3854545418087EE6
S11301D0090102081454543C7F0804047800447D47
S11301E040002040443D00007F10284400417F40EF
S11301F0007C041804787C080404783844444438A7
S11302007C14141408081414187C7C08040408488A
S113021054545420043F4440203C4040207C1C2043
S113022040201C3C4030403C44281028440C505092
S1130230503C4464544C44000836410000007F00A4
S113024000004136080002010302010011241FBE10
S1130250CFEFD4E0DEBFCDBF11E0A0E0B1E0E4E831
S1130260FBE002C005900D92A434B107D9F721E058
S1130270A4E4B1E001C01D92AB35B207E1F70E94DE
S11302800D020C94C0050C940000109250011092C1
S11302904F0110924A011092490185E080930014A5
S11302A082E58A95F1F7E0E0F4E1808190E09093B3
S11302B04A018093490184E0808382E58A95F1F7BD
S11302C08091001490E09093500180934F01089521
S11302D084E088BB17BA0895482F60EE80EF0E942F
S11302E0A4020895CF93DF931F92CDB7DEB70E9487
S11302F0B2030E94330241E050E0BE016F5F7F4FC2
S11303008EE00E943B028981807E803821F086E065
S113031091E00E94D30380E40E946C010E94960243
S113032090E00E94E20387E391E00E94D3030F90E0
S1130330DF91CF910895CF92DF92EF92FF920F93C6
S11303401F93CF93DF93CDB7DEB7EDB6FEB6FC01B6
S1130350428150E04E5F5F4F2DB73EB7241B350BF3
S11303600FB6F8943EBF0FBE2DBF6DB77EB76F5F5B
S11303707F4F2081EDB7FEB72183FC012281FB0171
S11303802183FC0122812223A1F0DC0113966B015D
S1130390F2E0CF0ED11C20E030E01D91F601119364
S11303A06F012F5F3F4FFC01028110E020173107DE
S11303B0A4F380E00E9470020FB6F894FEBE0FBE54
S11303C0EDBEDF91CF911F910F91FF90EF90DF90E1
S11303D0CF90089585B7806885BF80B7806280BF5D
S11303E008958FE190E00E94C4030E94EA010E94F4
S11303F0450187B38C7F87BB0E94CE020E941D03F8
S113040069EC73E08FE493E00E942B040E941D03C7
S11304100E9468010E9472010895CF93DF93CDB7C3
S1130420DEB72B970FB6F894DEBF0FBECDBF0E9488
S1130430F1010F2EF6E5FF2EF02D03E010E0EE247F
S1130440E3941A830983EB82FC8241E050E0BE010D
S11304506C5F7F4F80E00E943B02CE0101960E94B8
S11304609B01F394EECF0E94B70380EC0E94BB0380
S11304700E94B9030895EF92FF920F931F93CF93B5
S1130480DF93C82F7B018A010E94B70383E00E9497
S1130490BB038C2F0E94BB0310161106C4F4E701A2
S11304A00E0D1F1D0E94BF038883882361F089E31A
S11304B091E00E94D303888190E00E94E20387E3E5
S11304C091E00E94D3032196C017D10759F70E94E7
S11304D0B903DF91CF911F910F91FF90EF90089591
S11304E0EF92FF920F931F93CF93DF93C82F7B015B
S11304F08A010E94B70382E00E94BB038C2F0E94F2
S1130500BB03101611064CF4E7010E0D1F1D899153
S11305100E94BB03C017D107D1F70E94B903DF9132
S1130520CF911F910F91FF90EF900895CF930E9468
S1130530B70380EA0E94BB030E94BF03C82F0E9436
S1130540B9038C2FCF9108951F93CF93DF93182F66
S1130550D62FC42F0E94B70385E00E94BB03812FCE
S11305600E94BB038D2F0E94BB038C2F0E94BB03F0
S11305700E94B903DF91CF911F910895805290E0BA
S1130580FC01EE0FFF1FEE0FFF1FE80FF91FE60F30
S1130590F11DE059FF4F859194910895E0E0F0E159
S11305A08EEA808381EA80838AED808382E180837E
S11305B088EC808388EA80838FE3808385ED808361
S11305C080E8808381E8808380E5808389ED80836F
S11305D081E2808380E2808382E080838BED80836C
S11305E080E380838DEA8083108284EA808386EAB4
S11305F080838FEA80830895883090F490E09C0192
S113060020553F4FE0E0F0E12083108220E1208379
S1130610909348018093470110924601109245013E
S113062008950E94FC0280E890E0E0E0F2E121E01D
S1130630208301970097E1F70895CF93C0E08C2FB2
S11306400E941103CF5FC830D1F7CF910895DF9294
S1130650EF92FF920F931F93CF93DF9391E020913A
S11306604401213009F090E0D92ED194C0E0D0E0CB
S1130670E82EF12C00E012E1BE01C7010E94BE0287
S11306808D25F80180832196C530D105A9F7DF9126
S1130690CF911F910F91FF90EF90DF9008951F93DA
S11306A0CF93DF93182F8A3041F020914501309188
S11306B046012D3731050CF44EC02091470130918D
S11306C048012F5F3F4F27703078332334F4215093
S11306D03109286F3F6F2F5F3F4F309348012093BC
S11306E0470120914501309146012038310544F4F9
S11306F0E0E0F2E110822F5F3F4F20383105D1F75F
S1130700C7E4D1E088810E94FC0281E60E94CE0306
S11307108881805D0E94CE038AE00E94CE031092FD
S1130720460110924501812F0E94CE031A3081F0B8
S1130730812F0E94270320914501309146012B5FB0
S11307403F4F3093460120934501812F90E006C02E
S11307508AE090E003C00E94CE03EACFDF91CF91FC
S11307601F91089580EB87BB81E58DB90895C498E6
S11307700895C49A08958FB9779BFECF089580E0B9
S11307800E94BB038FB1089590BD89B988E18AB9ED
S113079008955F9BFECF8CB190E008955D9BFECFE2
S11307A08CB990E00895CF93DF93EC01888188237E
S11307B031F021960E94CE0389918111FBCFDF9104
S11307C0CF910895CF93DF93EC01992334F4D1951D
S11307D0C195D1098DE20E94CE03CA30D10544F0FF
S11307E0CE016AE070E00E940304CB010E94E203A0
S11307F0CE016AE070E00E940304805D0E94CE0393
S1130800DF91CF91089597FB072E16F4009407D03B
S113081077FD09D00E94170407FC05D03EF490959B
S113082081959F4F0895709561957F4F0895AA1BF8
S1130830BB1B51E107C0AA1FBB1FA617B70710F0C7
S1130840A61BB70B881F991F5A95A9F780959095F9
S1130850BC01CD0108950F931F93CF93DF93EC0157
S11308608B01009731F46115710519F480E090E073
S113087038C06EE070E081E090E00E947604FC01F4
S11308800097A1F380E883830115110571F01387A4
S1130890028781E883838091510190915201892BD1
S11308A021F4F0935201E09351012097C9F0D187CC
S11308B0C087838182608383809153019091540126
S11308C0892B71F4F0935401E09353018091550105
S11308D090915601892B21F4F0935601E093550130
S11308E0CF01DF91CF911F910F9108950F931F9323
S11308F0CF93DF93869F8001879F100D969F100DE5
S11309001124C8010E949204EC01009729F0A80167
S113091060E070E00E94B905CE01DF91CF911F9194
S11309200F910895CF93DF938230910510F482E004
S113093090E0E0915901F0915A0120E030E0A0E00C
S1130940B0E0309739F14081518148175907B8F028
S11309504817590771F482819381109729F01396EF
S11309609C938E9312972CC090935A0180935901B3
S113097027C02115310531F04217530718F0A9019A
S1130980DB0101C0EF019A01BD01DF010280F381A7
S1130990E02DD7CF21153105F9F0281B390B243070
S11309A0310580F48A819B816115710521F0FB0179
S11309B09383828304C090935A0180935901FE016A
S11309C0329644C0FE01E20FF31F819391932250AB
S11309D03109398328833AC0209157013091580155
S11309E0232B41F4209102013091030130935801EB
S11309F02093570120910001309101012115310507
S1130A0041F42DB73EB74091040150910501241BD8
S1130A10350BE0915701F0915801E217F307A0F468
S1130A202E1B3F0B2817390778F0AC014E5F5F4F40
S1130A302417350748F04E0F5F1F50935801409319
S1130A4057018193919302C0E0E0F0E0CF01DF9180
S1130A50CF910895CF93DF93009709F487C0FC01E9
S1130A60329713821282C0915901D0915A01209772
S1130A7081F420813181280F391F80915701909191
S1130A8058018217930779F5F0935801E0935701C1
S1130A906DC0DE0120E030E0AE17BF0750F41296BF
S1130AA04D915C9113979D014115510509F1DA01AE
S1130AB0F3CFB383A28340815181840F951F8A179A
S1130AC09B0771F48D919C911197840F951F029649
S1130AD09183808312968D919C9113979383828343
S1130AE02115310529F4F0935A01E09359013EC0D0
S1130AF0D9011396FC93EE9312974D915D91A40F37
S1130B00B51FEA17FB0779F480819181840F951F43
S1130B100296D90111969C938E93828193811396A8
S1130B209C938E931297E0E0F0E08A819B8100977A
S1130B3019F0FE01EC01F9CFCE010296288139812A
S1130B40820F931F209157013091580128173907BC
S1130B5069F4309729F410925A011092590102C095
S1130B6013821282D0935801C0935701DF91CF9121
S1130B700895DC0101C06D9341505040E0F70895A1
S1070B80F894FFCF13
S1130B8400005B0120004D43503235313520697338
S1130B94204E4F5420696E20636F6E6669677572C8
S1130BA46174696F6E206D6F64652061667465722B
S1130BB4207265736574210A006D63705F726561E8
S1070BC4643A20006B
S9030000FC
