S00D00006C617463682E737265630B
S11300000C9438000C9442000C9442000C9442006E
S11300100C9442000C9442000C9442000C94420054
S11300200C9442000C9442000C9442000C94420044
S11300300C9442000C9442000C9442000C94420034
S11300400C9442000C9442000C9442000C94420024
S11300500C9442000C9442000C9442000C94420014
S11300600C9442000C9442000C9442000C94420004
S113007011241FBECFEFD4E0DEBFCDBF0E945400D9
S11300800C945F000C94000090BD89B988E18AB992
S1130090089585B7806885BF08958FE190E00E9438
S11300A044000E94490008950E944D008FEF86B9D4
S11300B082E087B9EFEFF0E0F183E083FDCFF894BD
S10500C0FFCF6C
S9030000FC
