S01000006A6F79737469636B2E73726563A4
S11300000C9438000C9455000C9455000C94550035
S11300100C9455000C9455000C9455000C94550008
S11300200C9455000C9455000C9455000C945500F8
S11300300C9455000C9455000C9455000C945500E8
S11300400C9455000C9455000C9455000C945500D8
S11300500C9455000C9455000C9455000C945500C8
S11300600C9455000C9455000C9455000C945500B8
S113007011241FBECFEFD4E0DEBFCDBF11E0A0E05E
S1130080B1E0E4E5F2E002C005900D92A832B107B8
S1130090D9F721E0A8E2B1E001C01D92A832B2076D
S11300A0E1F70E94B2000C9428010C94000090BD6A
S11300B089B988E18AB9089585B7806885BF80B712
S11300C0806280BF08958FE190E00E9457000E94F3
S11300D05C0087B317BA08955D9BFECF8CB9089571
S11300E0CF93DF93EC018881882331F021960E941D
S11300F06C0089918111FBCFDF91CF910895CF934B
S1130100DF93EC018A30910568F09C01ADECBCEC06
S11301100E9419019695879596958795969587954A
S11301200E947F009E01ADECBCEC0E9419019695E3
S1130130879596958795969587959C01220F331FF1
S1130140880F991F880F991F880F991F820F931F7B
S11301509E01281B390BC901805D0E946C00DF9150
S1130160CF910895CF93DF9300D000D01F92CDB7E5
S1130170DEB70E94630000E014E16894CC24C2F866
S11301800F2EF5E0DF2EF02D0F2EF6E0EF2EF02DE2
S11301900F2EF7E0FF2EF02DF801C082F2E5FA955C
S11301A0F1F7F80180818A83D082F2E5FA95F1F7BC
S11301B0F8018081898380E091E00E947000898148
S11301C090E00E947F0084E091E00E9470008A81A8
S11301D090E00E947F00F801E082F2E5FA95F1F7E1
S11301E0F80180818B83F082F2E5FA95F1F7F8014A
S11301F080818C838AE091E00E9470008B8190E082
S11302000E947F0082E191E00E9470008C8190E066
S11302100E947F0088B38D8389E191E00E94700081
S11302208D8190E00E947F0086E291E00E94700040
S1130230B3CFA29FB001B39FC001A39F700D811DD6
S11302401124911DB29F700D811D1124911D0895DB
S1070250F894FFCF4C
S1130254783A20000920793A20000909206C733A7D
S11302642000092072733A2000090920627574740D
S10B02746F6E733A20000A00CA
S9030000FC
