S01000005352414D546573742E7372656341
S11300000C9438000C944D000C944D000C944D004D
S11300100C944D000C944D000C944D000C944D0028
S11300200C944D000C944D000C944D000C944D0018
S11300300C944D000C944D000C944D000C944D0008
S11300400C944D000C944D000C944D000C944D00F8
S11300500C944D000C944D000C944D000C944D00E8
S11300600C944D000C944D000C944D000C944D00D8
S113007011241FBECFEFD4E0DEBFCDBF11E0A0E05E
S1130080B1E0EAEDF0E002C005900D92A030B107B6
S1130090D9F70E9462000C946B000C94000090BD90
S11300A089B988E18AB9089585B7806885BF80B722
S11300B0806280BF08958FE190E00E944F000E940B
S11300C0540008950E945B008AE090E09093021827
S10D00D080930118FFCFF894FFCFCE
S9030000FC
