S01000005352414D546573742E7372656341
S11300000C9438000C944D000C944D000C944D004D
S11300100C944D000C944D000C944D000C944D0028
S11300200C944D000C944D000C944D000C944D0018
S11300300C944D000C944D000C944D000C944D0008
S11300400C944D000C944D000C944D000C944D00F8
S11300500C944D000C944D000C944D000C944D00E8
S11300600C944D000C944D000C944D000C944D00D8
S113007011241FBECFEFD4E0DEBFCDBF11E0A0E05E
S1130080B1E0E4E9F3E002C005900D92A037B107B6
S1130090D9F70E94DA000C94C8010C94000090BDBA
S11300A089B988E18AB908955D9BFECF8CB908951A
S11300B0CF93DF93EC018881882331F021960E944D
S11300C0540089918111FBCFDF91CF910895CF9393
S11300D0DF93EC018A3091053CF06AE070E00E9405
S11300E0DF00CB010E946700CE016AE070E00E944D
S11300F0DF00805D0E945400DF91CF91089585B7A1
S1130100806885BF80B7806280BF08958FE190E0EA
S11301100E944F000E947F000895EF92FF920F9378
S11301201F93CF93DF9384E091E00E9458000E94D4
S113013055018C010E945A01C0E0D8E1E12CF12C58
S11301400E94550188839881981719F08FEFE81A57
S1130150F80A2196C11580E2D80791F7C8010E94D8
S11301605A01C0E0D8E100E010E00E9455019881F6
S1130170981711F00F5F1F4F2196C11580E2D80721
S1130180A1F78BE191E00E945800C7010E9467002B
S113019086E391E00E945800C8010E94670083E54D
S11301A091E00E945800DF91CF911F910F91FF9031
S11301B0EF9008950E9486000E948D00FFCF97FB68
S11301C0072E16F4009407D077FD09D00E94F3009F
S11301D007FC05D03EF4909581959F4F0895709546
S11301E061957F4F0895AA1BBB1B51E107C0AA1F4D
S11301F0BB1FA617B70710F0A61BB70B881F991FC4
S11302005A95A9F780959095BC01CD0108958F92D8
S11302109F92AF92BF92CF92DF92EF92FF92CF93D1
S1130220DF93EC01688179818A819B816115710575
S11302308105910521F464E279ED8BE597E02DE1E8
S113024033EF41E050E00E94650149015A019B01EE
S1130250AC01A7EAB1E40E9484016B017C01ACEE1D
S1130260B4EFA50194010E949201C60ED71EE81EA8
S1130270F91EF7FE06C081E0C81AD108E10880E83B
S1130280F80AC882D982EA82FB82C6019F77DF918D
S1130290CF91FF90EF90DF90CF90BF90AF909F9061
S11302A08F9008950E940701089580E091E00E94D4
S11302B007010895A0E0B0E080930001909301014C
S11302C0A0930201B09303010895052E97FB1EF439
S11302D000940E947C0157FD07D00E94970107FCFF
S11302E003D04EF40C947C015095409530952195A3
S11302F03F4F4F4F5F4F089590958095709561954E
S11303007F4F8F4F9F4F08950E94B901A59F900D75
S1130310B49F900DA49F800D911D11240895B7FFE3
S11303200C9484010E948401821B930B0895A1E222
S11303301A2EAA1BBB1BFD010DC0AA1FBB1FEE1F5B
S1130340FF1FA217B307E407F50720F0A21BB30BA6
S1130350E40BF50B661F771F881F991F1A9469F722
S113036060957095809590959B01AC01BD01CF017E
S11303700895A29FB001B39FC001A39F700D811D7A
S11303801124911DB29F700D811D1124911D08959A
S1070390F894FFCF0B
S1130394010000005374617274696E672053524102
S11303A44D20746573742E2E2E0A005352414D2031
S11303B47465737420636F6D706C65746564207701
S11303C4697468200A00206572726F727320696E02
S11303D420777269746520706861736520616E6446
S11303E4200A00206572726F727320696E20726530
S11303F47472696576616C2070686173650A0A00B9
S9030000FC
