S01500005444543432303047726F7570312E737265631F
S11300000C9426010C9443010C9468030C94430152
S11300100C9443010C9443010C9443010C9443014C
S11300200C9443010C9443010C9443010C9443013C
S11300300C9443010C9443010C9443010C9443012C
S11300400C9443010C9443010C9443010C9443011C
S11300500C9443010C9443010C9443010C9443010C
S11300600C9443010C9443010C9443010C944301FC
S1130070000000000000005F0000000700070014FB
S11300807F147F14242A7F2A1223130864623649BA
S11300905522500005030000001C224100004122AB
S11300A01C00082A1C2A0808083E080800503000D2
S11300B00008080808080060600000201008040216
S11300C03E5149453E00427F40004261514946212C
S11300D041454B311814127F1027454545393C4A98
S11300E049493001710905033649494936064949E8
S11300F0291E00363600000056360000000814227F
S11301004114141414144122140800020151090664
S1130110324979413E7E1111117E7F494949363E6B
S1130120414141227F4141221C7F494949417F0984
S11301300901013E414151327F0808087F00417F97
S113014041002040413F017F081422417F4040404C
S1130150407F0204027F7F0408107F3E4141413EFC
S11301607F090909063E4151215E7F091929464646
S11301704949493101017F01013F4040403F1F206F
S113018040201F7F2018207F631408146303047821
S11301900403615149454300007F414102040810B2
S11301A02041417F000004020102044040404040DD
S11301B0000102040020545454787F4844443838E1
S11301C044444420384444487F3854545418087EE6
S11301D0090102081454543C7F0804047800447D47
S11301E040002040443D00007F10284400417F40EF
S11301F0007C041804787C080404783844444438A7
S11302007C14141408081414187C7C08040408488A
S113021054545420043F4440203C4040207C1C2043
S113022040201C3C4030403C44281028440C505092
S1130230503C4464544C44000836410000007F00A4
S113024000004136080002010302010011241FBE10
S1130250CFEFD4E0DEBFCDBF12E0A0E0B1E0E2EC2E
S1130260FFE002C005900D92AC37B107D9F722E048
S1130270ACE7B2E001C01D92A339B207E1F70E94D6
S1130280DA030C94DF070C94BD04109288021092D8
S11302908702109282021092810285E080930014FA
S11302A082E58A95F1F7E0E0F4E1808190E09093B3
S11302B082028093810284E0808382E58A95F1F74B
S11302C08091001490E090938802809387020895AF
S11302D084E088BB17BA0895482F60EE8FE00E942F
S11302E08E040895CF93DF9300D0CDB7DEB70E947C
S11302F0D1050E94B80441E050E0BE016F5F7F4F1A
S11303008EE00E940D048981807E803829F08BE084
S113031091E00E94F20504C08EE391E00E94F20590
S113032080E40E946C0141E050E0BE016E5F7F4FAB
S11303308FE00E940D0481E591E00E94F2058A811C
S113034090E00E94010681EC91E00E94F2050E9477
S1130350780490E00E94010681EC91E00E94F2058D
S11303600F900F90DF91CF910895BF92CF92DF92BB
S1130370EF92FF920F931F93CF93DF93CDB7DEB726
S11303802B970FB6F894DEBF0FBECDBF8C017B0157
S1130390D42EC22EB32E88E0841700F589E591E0AF
S11303A00E94F2058D2D90E00E94010689E891E0FB
S11303B00E94F20588E090E00E94010681EC91E041
S11303C00E94F20568E070E06894DD24D3F8EC2D17
S11303D0FB2DDE01149620E030E006C0642F70E0AF
S11303E016161706A4F307C091919D932F5F3F4FF4
S11303F026173707CCF3FA82E982DB828BE0FE0111
S11304003196D80101900D928A95E1F7C8012B9697
S11304100FB6F894DEBF0FBECDBFDF91CF911F9111
S11304200F91FF90EF90DF90CF90BF900895AF921F
S1130430BF92CF92DF92EF92FF920F931F93CF93CD
S1130440DF9300D0CDB7DEB78C01D62E662371F0D2
S113045081E06817C1F0E2E06E1711F1F3E06F1369
S11304602BC08AE991E00E94F20526C00F2EF6E324
S1130470CF2EF02D0F2EF5E3BF2EF02D0F2EF1E32E
S1130480AF2EF02D19C00F2EF6E4CF2EF02D0F2E27
S1130490F5E4BF2EF02D0F2EF1E4AF2EF02D0CC09D
S11304A00F2EF6E5CF2EF02D0F2EF5E5BF2EF02DF5
S11304B00F2EF1E5AF2EF02DF801219131917F013E
S11304C0A90156954795569547955695479549835D
S11304D02295220F207E2A8342E050E0BE016F5F06
S11304E07F4F8A2D0E94330441E050E0B7018B2DE9
S11304F00E943304F801428150E0B8016D5F7F4FE0
S11305008C2D0E9433048D2D0E9459040F900F905E
S1130510DF91CF911F910F91FF90EF90DF90CF90DB
S1130520BF90AF900895CF93DF93EC010E947804BD
S113053060E0CE010E941702DF91CF910895FC0183
S11305408181829586958770208190E038E0239F91
S1130550800D911D11240895CF92DF92EF92FF92A6
S11305600F931F93CF93DF93CDB7DEB72B970FB6BF
S1130570F894DEBF0FBECDBF8C01F62E40E061E0E3
S11305808CE20E948E0481E0F81621F082E0F812D9
S11305901AC00DC00F2EF6E6DF2EF02D0F2EF5E655
S11305A0CF2EF02D0F2EF1E6EF2EF02D0CC00F2ED6
S11305B0F6E7DF2EF02D0F2EF5E7CF2EF02D0F2EC0
S11305C0F1E7EF2EF02D42E050E0BE016F5F7F4F68
S11305D08E2D0E940D04CE0101960E949F027C0183
S11305E041E050E0BE016D5F7F4F8C2D0E940D04F1
S11305F04B8150E0BE016C5F7F4F8D2D0E940D0436
S11306009E012C5F3F4F4B81B701C8010E94B50189
S1130610C8012B960FB6F894DEBF0FBECDBFDF9195
S1130620CF911F910F91FF90EF90DF90CF9008959D
S1130630EF92FF920F931F93CF93DF937C0183EC90
S113064091E00E94F205F701808191810E940106E8
S113065087ED91E00E94F205F701828190E00E940B
S1130660010682EE91E00E94F205F701828188235F
S1130670B1F087010D5F1F4FC0E0D0E0F801819118
S11306808F0190E00E9401068BEE91E00E94F2053A
S11306902196F701228130E0C217D3077CF381EC65
S11306A091E00E94F205DF91CF911F910F91FF908D
S11306B0EF90089580FD08C081FD08C08DEE91E0A3
S11306C00E94F20580E0089581E0089582E0089593
S11306D01F920F920FB60F9211242F933F934F93B3
S11306E05F936F937F938F939F93AF93BF93EF9396
S11306F0FF93CF93DF93CDB7DEB72B97DEBFCDBF8C
S11307008FE092E00E94F2058AB790E00E94010611
S11307100E9478040E945A03682FCE0101960E9419
S1130720AC028EE292E00E94F205CE0101960E9494
S1130730180388E392E00E94F20578942B960FB692
S1130740F894DEBF0FBECDBFDF91CF91FF91EF9143
S1130750BF91AF919F918F917F916F915F914F91D5
S11307603F912F910F900FBE0F901F90189585B752
S1130770806885BF80B7806280BF08958FE190E074
S11307800E94E3050E94B7030E94450187B38C7F52
S113079087BB0E94FC040E944B0568EE75E08DE760
S11307A095E00E9471070E944B050E9468010E9417
S11307B072010895CF93DF93CDB7DEB760970FB67C
S11307C0F894DEBF0FBECDBF0E94BE0315E087E4E0
S11307D092E00E94F205E6E0F1E0DE011C96812F32
S11307E001900D928A95E1F79E01245F3F4F412FBE
S11307F06AE270E0CE0101960E94B501CE01019635
S11308000E9493020E947804E2CF0E94D60580ECF5
S11308100E94DA050E94D8050895EF92FF920F9383
S11308201F93CF93DF93C82F7B018A010E94D605C3
S113083083E00E94DA058C2F0E94DA051016110657
S11308404CF4E7010E0D1F1D0E94DE058993C017AD
S1130850D107D1F70E94D805DF91CF911F910F9155
S1130860FF90EF900895EF92FF920F931F93CF9311
S1130870DF93C82F7B018A010E94D60582E00E9483
S1130880DA058C2F0E94DA05101611064CF4E701E4
S11308900E0D1F1D89910E94DA05C017D107D1F7EB
S11308A00E94D805DF91CF911F910F91FF90EF9097
S11308B00895CF93C82F0E94D605C11104C081E8C2
S11308C00E94DA0511C0C13021F482E80E94DA05E1
S11308D00BC0C23021F484E80E94DA0505C0C3309D
S11308E019F487E80E94DA050E94D805CF9108958B
S11308F0CF930E94D60580EA0E94DA058FE592E044
S11309000E94F2050E94DE05C82F8FE592E00E9446
S1130910F2050E94D8058C2FCF9108951F93CF9391
S1130920DF93182FD62FC42F0E94D60585E00E948E
S1130930DA05812F0E94DA058D2F0E94DA058C2FAB
S11309400E94DA050E94D805DF91CF911F91089586
S113095085B7886085BF85B78B7F85BF8BB7806877
S11309608BBF43E063E08BE20E948E047894089589
S11309700E9405040E94A80408951F920F920FB6C6
S11309800F9211242F933F934F935F936F937F9311
S11309908F939F93AF93BF93EF93FF9383E692E07C
S11309A00E94F2058AB790E00E94010681EC91E072
S11309B00E94F2057894FF91EF91BF91AF919F91BE
S11309C08F917F916F915F914F913F912F910F90F4
S11309D00FBE0F901F901895805290E0FC01EE0F0F
S11309E0FF1FEE0FFF1FE80FF91FE60FF11DE0597F
S11309F0FF4F859194910895E0E0F0E18EEA8083C1
S1130A0081EA80838AED808382E1808388EC80831D
S1130A1088EA80838FE3808385ED808380E8808308
S1130A2081E8808380E5808389ED808381E280830F
S1130A3080E2808382E080838BED808380E3808307
S1130A408DEA8083108284EA808386EA80838FEA39
S1130A5080830895883090F490E09C0120553F4FA6
S1130A60E0E0F0E12083108220E120839093800273
S1130A7080937F0210927E0210927D0208950E945C
S1130A802A0580E890E0E0E0F2E121E0208301978C
S1130A900097E1F70895CF93C0E08C2F0E943F05A3
S1130AA0CF5FC830D1F7CF910895DF92EF92FF92D4
S1130AB00F931F93CF93DF9391E020917C02213019
S1130AC009F090E0D92ED194C0E0D0E0E82EF12CCA
S1130AD000E012E1BE01C7010E94EC048D25F8017B
S1130AE080832196C530D105A9F7DF91CF911F915D
S1130AF00F91FF90EF90DF900895CF93C82F8A3025
S1130B0041F020917D0230917E022D3731050CF4A5
S1130B1043C020917F02309180022F5F3F4F2770A6
S1130B203078332334F421503109286F3F6F2F5F1D
S1130B303F4F3093800220937F0220917D023091B9
S1130B407E022038310544F4E0E0F2E110822F5FA8
S1130B503F4F20383105D1F780917F020E942A054A
S1130B6010927E0210927D028C2F0E94ED05CA30F5
S1130B7081F08C2F0E94550520917D0230917E02D8
S1130B802B5F3F4F30937E0220937D028C2F90E0A9
S1130B9006C08AE090E003C00E94ED05EACFCF9141
S1130BA0089587E087BB81E58DB90895C4980895B9
S1130BB0C49A08958FB9779BFECF089580E00E9470
S1130BC0DA058FB1089590BD89B988E18AB908958D
S1130BD05F9BFECF8CB190E008955D9BFECF8CB9F6
S1130BE090E00895CF93DF93EC018881882331F05E
S1130BF021960E94ED0589918111FBCFDF91CF9160
S1130C000895CF93DF93EC01992334F4D195C195E2
S1130C10D1098DE20E94ED05CA30D10544F0CE0120
S1130C206AE070E00E942206CB010E940106CE0118
S1130C306AE070E00E942206805D0E94ED05DF916B
S1130C40CF91089597FB072E16F4009407D077FDF3
S1130C5009D00E94360607FC05D03EF49095819594
S1130C609F4F0895709561957F4F0895AA1BBB1BF4
S1130C7051E107C0AA1FBB1FA617B70710F0A61B98
S1130C80B70B881F991F5A95A9F780959095BC01B9
S1130C90CD010895CF93DF938230910510F482E063
S1130CA090E0E0918B02F0918C0220E030E0A0E033
S1130CB0B0E0309739F14081518148175907B8F0B5
S1130CC04817590771F482819381109729F013967C
S1130CD09C938E9312972CC090938C0280938B02DA
S1130CE027C02115310531F04217530718F0A90127
S1130CF0DB0101C0EF019A01BD01DF010280F38134
S1130D00E02DD7CF21153105F9F0281B390B2430FC
S1130D10310580F48A819B816115710521F0FB0105
S1130D209383828304C090938C0280938B02FE0190
S1130D30329644C0FE01E20FF31F81939193225037
S1130D403109398328833AC02091890230918A027B
S1130D50232B41F4209102013091030130938A0244
S1130D602093890220910001309101012115310560
S1130D7041F42DB73EB74091040150910501241B65
S1130D80350BE0918902F0918A02E217F307A0F48F
S1130D902E1B3F0B2817390778F0AC014E5F5F4FCD
S1130DA02417350748F04E0F5F1F50938A02409373
S1130DB089028193919302C0E0E0F0E0CF01DF91DA
S1130DC0CF910895CF93DF93009709F487C0FC0176
S1130DD0329713821282C0918B02D0918C02209799
S1130DE081F420813181280F391F809189029091EB
S1130DF08A028217930779F5F0938A02E0938902B5
S1130E006DC0DE0120E030E0AE17BF0750F412964B
S1130E104D915C9113979D014115510509F1DA013A
S1130E20F3CFB383A28340815181840F951F8A1726
S1130E309B0771F48D919C911197840F951F0296D5
S1130E409183808312968D919C91139793838283CF
S1130E502115310529F4F0938C02E0938B023EC0F6
S1130E60D9011396FC93EE9312974D915D91A40FC3
S1130E70B51FEA17FB0779F480819181840F951FD0
S1130E800296D90111969C938E9382819381139635
S1130E909C938E931297E0E0F0E08A819B81009707
S1130EA019F0FE01EC01F9CFCE01029628813981B7
S1130EB0820F931F2091890230918A0228173907E3
S1130EC069F4309729F410928C0210928B0202C0BC
S1130ED013821282D0938A02C0938902DF91CF9148
S1130EE008950F931F93CF93DF93EC018B01009729
S1130EF031F46115710519F480E090E038C06EE0BA
S1130F0070E081E090E00E94BC07FC010097A1F32F
S1130F1080E883830115110571F01387028781E846
S1130F20838380918D0290918E02892B21F4F0931A
S1130F308E02E0938D022097C9F0D187C087838108
S1130F408260838380918F0290919002892B71F447
S1130F50F0939002E0938F0280919102909192021B
S1130F60892B21F4F0939202E0939102CF01DF9157
S1130F70CF911F910F9108950F931F93CF93DF93F8
S1130F80869F8001879F100D969F100D1124C80124
S1130F900E944A06EC01009729F0A80160E070E085
S1130FA00E94D807CE01DF91CF911F910F91089530
S1130FB0DC0101C06D9341505040E0F70895F8946E
S1050FC0FFCF5D
S1130FC200009302200001020304054D4350323510
S1130FD23135206973204E4F5420696E20636F6E41
S1130FE266696775726174696F6E206D6F646520DE
S1130FF26166746572207265736574210A006361A7
S11310026E5F696E697420636F6D706C6574650AD6
S113101200636865636B3A2000556E61626C6520FB
S1131022746F206D616B652061206D6573736167F8
S113103265206F66207468652064657369726564EF
S1131042206C656E6774680A00204973206C6172B3
S1131052676572207468616E2000796F7520636120
S11310626E206F6E6C792066696C6C206F6E6520E1
S113107262756666657220617420612074696D65AB
S1131082210A0043616E5F4D6573736167653A209F
S11310920A0949443A20000A096C656E6774683A81
S11310A220000A09646174613A20002C00457272BE
S11310B26F722C206E6F20726563656976652D628E
S11310C275666665722069732066756C6C0A0052D7
S11310D265636569766564206D6573736167652010
S11310E2627920696E746572727570740A00507246
S11310F2696E74696E670A00496E657272757074FE
S113110220646F6E650A00426567696E6E696E6778
S1131112206F66206D61696E206C6F6F700A0048E3
S1131122490A00554E494D504C454D454E5445448F
S10F113220494E544552525550540900B7
S9030000FC
