S01500005444543432303047726F7570312E737265631F
S11300000C9426010C9443010C9443010C94430179
S11300100C9443010C9443010C9443010C9443014C
S11300200C9443010C9443010C9443010C9443013C
S11300300C9443010C9443010C9443010C9443012C
S11300400C9443010C9443010C9443010C9443011C
S11300500C9443010C9443010C9443010C9443010C
S11300600C9443010C9443010C9443010C944301FC
S1130070000000000000005F0000000700070014FB
S11300807F147F14242A7F2A1223130864623649BA
S11300905522500005030000001C224100004122AB
S11300A01C00082A1C2A0808083E080800503000D2
S11300B00008080808080060600000201008040216
S11300C03E5149453E00427F40004261514946212C
S11300D041454B311814127F1027454545393C4A98
S11300E049493001710905033649494936064949E8
S11300F0291E00363600000056360000000814227F
S11301004114141414144122140800020151090664
S1130110324979413E7E1111117E7F494949363E6B
S1130120414141227F4141221C7F494949417F0984
S11301300901013E414151327F0808087F00417F97
S113014041002040413F017F081422417F4040404C
S1130150407F0204027F7F0408107F3E4141413EFC
S11301607F090909063E4151215E7F091929464646
S11301704949493101017F01013F4040403F1F206F
S113018040201F7F2018207F631408146303047821
S11301900403615149454300007F414102040810B2
S11301A02041417F000004020102044040404040DD
S11301B0000102040020545454787F4844443838E1
S11301C044444420384444487F3854545418087EE6
S11301D0090102081454543C7F0804047800447D47
S11301E040002040443D00007F10284400417F40EF
S11301F0007C041804787C080404783844444438A7
S11302007C14141408081414187C7C08040408488A
S113021054545420043F4440203C4040207C1C2043
S113022040201C3C4030403C44281028440C505092
S1130230503C4464544C44000836410000007F00A4
S113024000004136080002010302010011241FBE10
S1130250CFEFD4E0DEBFCDBF11E0A0E0B1E0ECEE23
S1130260F2E102C005900D92A436B107D9F721E05E
S1130270A4E6B1E001C01D92A138B207E1F70E94E3
S113028010020C9474090C940000109276011092E0
S113029075011092700110926F0185E08093001433
S11302A082E58A95F1F7E0E0F4E1808190E09093B3
S11302B0700180936F0184E0808382E58A95F1F771
S11302C08091001490E090937601809375010895D5
S11302D0672B29F020916F013091700104C02091A7
S11302E0750130917601AC01421B530B9A0144E62F
S11302F0429FC001439F900D11246FE770E00E945C
S1130300C004CB016C395FEF750714F48CE99FEFDF
S11303108536910514F084E690E008950F931F93B9
S1130320CF93DF9385E08093001482E58A95F1F7FB
S1130330C0E0D4E1888161E070E090E00E9468014F
S11303408C0184E0888382E58A95F1F7809100141A
S113035060E070E090E00E946801A801BC01CB015C
S1130360BA01DF91CF911F910F9108950E948E01E0
S1130370AB019C01DB01772324F4AA27BB27A61B2E
S1130380B70BFC01332324F4EE27FF27E81BF90BFA
S1130390EA17FB0744F44B3051056CF4463F5F4FBA
S11303A064F483E008952B3031054CF4263F3F4F2D
S11303B044F483E0089582E0089584E0089582E09F
S11303C0089584E0089584E088BB17BA089586B33D
S11303D08695869591E08927817090E0089586B38B
S11303E0817090E0089585B7806885BF80B780628A
S11303F080BF08958FE190E00E94B1040E94F30150
S11304000E94450187B38C7F87BB0E94A4030E948E
S11304100C0466EB74E088E494E00E94E804089518
S11304200E94FA010E940C040E94E3010E94AE049F
S1130430FDCF805290E0FC01EE0FFF1FEE0FFF1F77
S1130440E80FF91FE60FF11DE059FF4F85919491D4
S113045008950F931F93CF93DF93EC018B010E94B8
S1130460B601823019F0833069F019C09091060109
S11304709430A9F41C161D0614F4219710C0E80149
S113048021970DC090910601943049F4015011094F
S1130490C017D10714F4219602C0C0E0D0E08093C5
S11304A00601CE01DF91CF911F910F9108958F9294
S11304B09F92AF92BF92CF92DF92EF92FF920F93EF
S11304C01F93CF93DF936B015A01161617060CF096
S11304D040C04A01880C991C880E991E8C01C0E00A
S11304E0D0E00F2EF8E4EF2EF1E0FF2EF02DCA1528
S11304F0DB05B1F481E00E94AB04FF92EF920E940D
S11305003305F40181818F9380818F930E94330599
S113051080E00E94AB040F900F900F900F900FC0DB
S1130520FF92EF920E943305F80181818F938081BD
S11305308F930E9433050F900F900F900F908AE0D5
S113054090E00E94470521960E5F1F4FCC15DD05F4
S113055071F6DF91CF911F910F91FF90EF90DF9093
S1130560CF90BF90AF909F908F900895EF92FF929D
S11305700F931F93CF93DF9300D000D0CDB7DEB796
S11305800E940C040F2EF3E1EF2EF1E0FF2EF02D6C
S113059006E111E022C060E080E00E941604FA82C5
S11305A0E9821C830B838AE191E00E944E0540910D
S11305B068015091690162E070E0CE0101960E94E9
S11305C0570262E070E080916801909169010E9495
S11305D0290290936901809368010E94EF01892B9D
S11305E0D1F20F900F900F900F90DF91CF911F9148
S11305F00F91FF90EF900895EF92FF920F931F9346
S1130600CF93DF9300D000D0CDB7DEB70E940C04A7
S11306100F2EFFE1EF2EF1E0FF2EF02D04E211E0AA
S113062022C060E080E00E941604FA82E9821C8302
S11306300B8388E291E00E944E054091660150913F
S1130640670162E070E0CE0101960E94570262E009
S113065070E080916601909167010E942902909355
S11306606701809366010E94EF01892BD1F20F90FC
S11306700F900F900F90DF91CF911F910F91FF90EA
S1130680EF9008951F93CF93DF93CDB7DEB72C97E8
S11306900FB6F894DEBF0FBECDBF0E940C0416E067
S11306A044C060E080E00E94160480E391E00E9470
S11306B04E05E7E0F1E0DE011796812F01900D92DF
S11306C08A95E1F7EDE0F1E0DE011196812F0190CA
S11306D00D928A95E1F7409164015091650163E0C0
S11306E070E0CE0101960E94570263E070E08091B1
S11306F06401909165010E942902909365018093A1
S113070064010E94E701892B81F0E0916401F0917A
S11307106501EE0FFF1F81E090E08C0F9D1FE80F35
S1130720F91F0680F781E02D09950E94EF01892BBE
S113073009F4B7CF2C960FB6F894DEBF0FBECDBF29
S1130740DF91CF911F910895E0E0F0E18EEA80837C
S113075081EA80838AED808382E1808388EC8083D0
S113076088EA80838FE3808385ED808380E88083BB
S113077081E8808380E5808389ED808381E28083C2
S113078080E2808382E080838BED808380E38083BA
S11307908DEA8083108284EA808386EA80838FEAEC
S11307A080830895883090F490E09C0120553F4F59
S11307B0E0E0F0E12083108220E1208390936E0139
S11307C080936D0110926C0110926B010895803832
S11307D09105ACF4282F2F70E0E0F0E120839C0118
S11307E035952795359527953595279535952795ED
S11307F02F702061208390936C0180936B01089586
S11308000E94D20380E890E0E0E0F2E121E020835E
S113081001970097E1F70895CF93C0E08C2F0E94D1
S11308200004CF5FC830D1F7CF910895CF93C62F7E
S11308300E94D2038C2F90E00E94E703CF91089589
S1130840DF92EF92FF920F931F93CF93DF9391E088
S113085020916A01213009F090E0D92ED194C0E0B2
S1130860D0E0E82EF12C00E012E1BE01C7010E94A5
S113087019028D25F80180832196C530D105A9F789
S1130880DF91CF911F910F91FF90EF90DF9008952A
S11308901F93CF93DF93182F8A3041F020916B017F
S11308A030916C012D3731050CF44EC020916D014F
S11308B030916E012F5F3F4F27703078332334F42B
S11308C021503109286F3F6F2F5F3F4F30936E01E6
S11308D020936D0120916B0130916C01203831051A
S11308E044F4E0E0F2E110822F5F3F4F20383105FD
S11308F0D1F7CDE6D1E088810E94D20381E60E943F
S1130900BB048881805D0E94BB048AE00E94BB0412
S113091010926C0110926B01812F0E94BB041A305B
S113092081F0812F0E94200420916B0130916C0191
S11309302B5F3F4F30936C0120936B01812F90E02C
S113094006C08AE090E003C00E94BB04EACFDF91B6
S1130950CF911F91089580936A0108950E944203E4
S1130960089590BD89B988E18AB908955F9BFECF47
S11309708CB190E008955D9BFECF8CB990E0089512
S113098097FB072E16F4009407D077FD09D00E9438
S1130990D40407FC05D03EF4909581959F4F0895AB
S11309A0709561957F4F0895AA1BBB1B51E107C049
S11309B0AA1FBB1FA617B70710F0A61BB70B881FEB
S11309C0991F5A95A9F780959095BC01CD0108957A
S11309D00F931F93CF93DF93EC018B01009731F4B6
S11309E06115710519F480E090E038C06EE070E0A4
S11309F081E090E00E944D07FC010097A1F380E89C
S1130A0083830115110571F01387028781E88383BD
S1130A108091770190917801892B21F4F0937801EA
S1130A20E09377012097C9F0D187C08783818260E2
S1130A3083838091790190917A01892B71F4F093E9
S1130A407A01E093790180917B0190917C01892B5B
S1130A5021F4F0937C01E0937B01CF01DF91CF91EE
S1130A601F910F910895A0E0B0E0E9E3F5E00C9444
S1130A704D09FE01359661917191AF018091790123
S1130A8090917A010E947B05E2E00C9469096091DF
S1130A90790170917A010E94AD0808950F931F9314
S1130AA0CF93DF93E0917901F0917A01238121FFC3
S1130AB01BC0EC0100E010E0899160917901709114
S1130AC07A01DB011896ED91FC911997882331F096
S1130AD00995892B89F30FEF1FEFEECF8AE0099573
S1130AE0892B11F4C80102C08FEF9FEFDF91CF91E2
S1130AF01F910F910895ACE0B0E0E1E8F5E00C94AB
S1130B003D097C016B018A01FC01178216828381F5
S1130B1081FFBDC1CE0101964C01F7019381F6011D
S1130B2093FD859193FF81916F01882309F4ABC1F3
S1130B30853239F493FD859193FF81916F0185325C
S1130B4029F4B70190E00E94AD08E7CF512C312C75
S1130B5020E02032A0F48B3269F030F4803259F076
S1130B60833269F420612CC08D3239F0803339F43A
S1130B70216026C02260246023C0286021C027FD94
S1130B8027C030ED380F3A3078F426FF06C0FAE07B
S1130B905F9E300D1124532E13C08AE0389E300D11
S1130BA01124332E20620CC08E3221F426FD6BC139
S1130BB0206406C08C3611F4206802C0883641F4E3
S1130BC0F60193FD859193FF81916F018111C1CF4E
S1130BD0982F9F7D9554933028F40C5F1F4FFFE3AB
S1130BE0F9830DC0833631F0833771F0833509F012
S1130BF05BC022C0F801808189830E5F1F4F4424AB
S1130C004394512C540115C03801F2E06F0E711C4D
S1130C10F801A080B18026FF03C0652D70E002C0FA
S1130C206FEF7FEFC5012C870E94A2082C0183017E
S1130C302C852F77222E17C03801F2E06F0E711C1D
S1130C40F801A080B18026FF03C0652D70E002C0CA
S1130C506FEF7FEFC5012C870E9490082C012C8533
S1130C602068222E830123FC1BC0832D90E04816AC
S1130C705906B0F4B70180E290E00E94AD083A94BE
S1130C80F4CFF50127FC859127FE81915F01B7011F
S1130C9090E00E94AD0831103A94F1E04F1A5108E7
S1130CA04114510471F7E5C0843611F0893639F5E1
S1130CB0F80127FF07C060817181828193810C5FF5
S1130CC01F4F08C060817181882777FD8095982F18
S1130CD00E5F1F4F2F76B22E97FF09C09095809517
S1130CE0709561957F4F8F4F9F4F2068B22E2AE0F9
S1130CF030E0A4010E94DF08A82EA81844C085375C
S1130D0029F42F7EB22E2AE030E025C0F22FF97F9D
S1130D10BF2E8F36C1F018F4883579F0B4C080370F
S1130D2019F0883721F0AFC02F2F2061B22EB4FE06
S1130D300DC08B2D8460B82E09C024FF0AC09F2FDC
S1130D409660B92E06C028E030E005C020E130E00E
S1130D5002C020E132E0F801B7FE07C06081718172
S1130D60828193810C5F1F4F06C06081718180E096
S1130D7090E00E5F1F4FA4010E94DF08A82EA81860
S1130D80FB2DFF77BF2EB6FE0BC02B2D2E7FA51497
S1130D9050F4B4FE0AC0B2FC08C02B2D2E7E05C050
S1130DA07A2C2B2D03C07A2C01C0752C24FF0DC086
S1130DB0FE01EA0DF11D8081803311F4297E09C002
S1130DC022FF06C07394739404C0822F867809F0BE
S1130DD0739423FD13C020FF06C05A2C731418F417
S1130DE0530C5718732C731468F4B70180E290E025
S1130DF02C870E94AD0873942C85F5CF731410F4DE
S1130E00371801C0312C24FF12C0B70180E390E0F1
S1130E102C870E94AD082C8522FF17C021FF03C038
S1130E2088E590E002C088E790E0B7010CC0822F0B
S1130E30867859F021FD02C080E201C08BE227FDD3
S1130E408DE2B70190E00E94AD08A51438F4B70113
S1130E5080E390E00E94AD085A94F7CFAA94F4017D
S1130E60EA0DF11D8081B70190E00E94AD08A11048
S1130E70F5CF332009F451CEB70180E290E00E940F
S1130E80AD083A94F6CFF7018681978102C08FEFBF
S1130E909FEF2C96E2E10C9459090F931F93CF9383
S1130EA0DF93869F8001879F100D969F100D11245C
S1130EB0C8010E946907EC01009729F0A80160E0CD
S1130EC070E00E949B08CE01DF91CF911F910F919A
S1130ED00895CF93DF938230910510F482E090E07F
S1130EE0E0917F01F091800120E030E0A0E0B0E0EB
S1130EF0309739F14081518148175907B8F04817A4
S1130F00590771F482819381109729F013969C9369
S1130F108E9312972CC09093800180937F0127C0F9
S1130F202115310531F04217530718F0A901DB01EF
S1130F3001C0EF019A01BD01DF010280F381E02DC0
S1130F40D7CF21153105F9F0281B390B2430310591
S1130F5080F48A819B816115710521F0FB019383E3
S1130F60828304C09093800180937F01FE013296B6
S1130F7044C0FE01E20FF31F819391932250310983
S1130F80398328833AC020917D0130917E01232B3F
S1130F9041F4209102013091030130937E012093AA
S1130FA07D0120910001309101012115310541F4A9
S1130FB02DB73EB74091040150910501241B350B18
S1130FC0E0917D01F0917E01E217F307A0F42E1B5E
S1130FD03F0B2817390778F0AC014E5F5F4F241799
S1130FE0350748F04E0F5F1F50937E0140937D01FB
S1130FF08193919302C0E0E0F0E0CF01DF91CF91C3
S11310000895CF93DF93009709F487C0FC013297CA
S113101013821282C0917F01D0918001209781F4C4
S113102020813181280F391F80917D0190917E01AB
S11310308217930779F5F0937E01E0937D016DC0EB
S1131040DE0120E030E0AE17BF0750F412964D9158
S11310505C9113979D014115510509F1DA01F3CF14
S1131060B383A28340815181840F951F8A179B0704
S113107071F48D919C911197840F951F0296918321
S1131080808312968D919C9113979383828321156B
S1131090310529F4F0938001E0937F013EC0D9012A
S11310A01396FC93EE9312974D915D91A40FB51F87
S11310B0EA17FB0779F480819181840F951F0296CA
S11310C0D90111969C938E938281938113969C935C
S11310D08E931297E0E0F0E08A819B81009719F0EB
S11310E0FE01EC01F9CFCE01029628813981820FED
S11310F0931F20917D0130917E012817390769F4EF
S1131100309729F41092800110927F0102C013825B
S11311101282D0937E01C0937D01DF91CF91089517
S1131120FC010590615070400110D8F780959095AE
S11311308E0F9F1F0895DC0101C06D9341505040F4
S1131140E0F70895FC016150704001900110D8F758
S1131150809590958E0F9F1F08950F931F93CF93A3
S1131160DF93182F092FEB018B8181FD03C08FEFD3
S11311709FEF20C082FF10C04E815F812C813D8192
S1131180421753077CF4E881F9819F012F5F3F4F99
S113119039832883108306C0E885F985812F099552
S11311A0892B29F72E813F812F5F3F4F3F832E8369
S11311B0812F902FDF91CF911F910F910895FA0104
S11311C0AA27283051F1203181F1E8946F936E7F82
S11311D06E5F7F4F8F4F9F4FAF4FB1E03ED0B4E073
S11311E03CD0670F781F891F9A1FA11D680F791FB4
S11311F08A1F911DA11D6A0F711D811D911DA11DC5
S113120020D009F468943F912AE0269F11243019D4
S1131210305D3193DEF6CF010895462F4770405D6F
S11312204193B3E00FD0C9F7F6CF462F4F70405D1E
S11312304A3318F0495D31FD4052419302D0A9F779
S1131240EACFB4E0A6959795879577956795BA9573
S1131250C9F700976105710508959B01AC010A2E39
S113126006945795479537952795BA95C9F7620F10
S1131270731F841F951FA01D08952F923F924F92B4
S11312805F926F927F928F929F92AF92BF92CF9212
S1131290DF92EF92FF920F931F93CF93DF93CDB71B
S11312A0DEB7CA1BDB0B0FB6F894DEBF0FBECDBF93
S11312B009942A88398848885F846E847D848C8464
S11312C09B84AA84B984C884DF80EE80FD800C816D
S11312D01B81AA81B981CE0FD11D0FB6F894DEBF50
S10F12E00FBECDBFED010895F894FFCFC0
S11312EC00008101200004B602FC02FC024D0154F2
S11312FC015B01656E006D657200506C6179007460
S113130C756C6C006E6F65004F7074696F6E730052
S113131C2020202020202020204D41494E204D45C6
S113132C4E5520202020202020202020004F4E45E8
S113133C2020200054574F2020200054485245456B
S107134C2020200039
S9030000FC
