S01500005444543432303047726F7570312E737265631F
S11300000C9426010C9443010C9443010C94430179
S11300100C9443010C9443010C9443010C9443014C
S11300200C9443010C9443010C9443010C9443013C
S11300300C9443010C9443010C9443010C9443012C
S11300400C9443010C9443010C9443010C9443011C
S11300500C9443010C9443010C9443010C9443010C
S11300600C9443010C9443010C9443010C944301FC
S1130070000000000000005F0000000700070014FB
S11300807F147F14242A7F2A1223130864623649BA
S11300905522500005030000001C224100004122AB
S11300A01C00082A1C2A0808083E080800503000D2
S11300B00008080808080060600000201008040216
S11300C03E5149453E00427F40004261514946212C
S11300D041454B311814127F1027454545393C4A98
S11300E049493001710905033649494936064949E8
S11300F0291E00363600000056360000000814227F
S11301004114141414144122140800020151090664
S1130110324979413E7E1111117E7F494949363E6B
S1130120414141227F4141221C7F494949417F0984
S11301300901013E414151327F0808087F00417F97
S113014041002040413F017F081422417F4040404C
S1130150407F0204027F7F0408107F3E4141413EFC
S11301607F090909063E4151215E7F091929464646
S11301704949493101017F01013F4040403F1F206F
S113018040201F7F2018207F631408146303047821
S11301900403615149454300007F414102040810B2
S11301A02041417F000004020102044040404040DD
S11301B0000102040020545454787F4844443838E1
S11301C044444420384444487F3854545418087EE6
S11301D0090102081454543C7F0804047800447D47
S11301E040002040443D00007F10284400417F40EF
S11301F0007C041804787C080404783844444438A7
S11302007C14141408081414187C7C08040408488A
S113021054545420043F4440203C4040207C1C2043
S113022040201C3C4030403C44281028440C505092
S1130230503C4464544C44000836410000007F00A4
S113024000004136080002010302010011241FBE10
S1130250CFEFD4E0DEBFCDBF11E0A0E0B1E0E8ED28
S1130260F0E102C005900D92A234B107D9F721E064
S1130270A2E4B1E001C01D92AB35B207E1F70E94E0
S113028000020C946A080C94000010925001109221
S11302904F0110924A011092490185E080930014A5
S11302A082E58A95F1F7E0E0F4E1808190E09093B3
S11302B04A018093490184E0808382E58A95F1F7BD
S11302C08091001490E09093500180934F01089521
S11302D0672B29F02091490130914A0104C02091F3
S11302E04F0130915001AC01421B530B9A0144E67B
S11302F0429FC001439F900D11246FE770E00E945C
S1130300B603CB016C395FEF750714F48CE99FEFEA
S11303108536910514F084E690E008950F931F93B9
S1130320CF93DF9385E08093001482E58A95F1F7FB
S1130330C0E0D4E1888161E070E090E00E9468014F
S11303408C0184E0888382E58A95F1F7809100141A
S113035060E070E090E00E946801A801BC01CB015C
S1130360BA01DF91CF911F910F9108950E948E01E0
S1130370AB019C01DB01772324F4AA27BB27A61B2E
S1130380B70BFC01332324F4EE27FF27E81BF90BFA
S1130390EA17FB0744F44B3051056CF4463F5F4FBA
S11303A064F483E008952B3031054CF4263F3F4F2D
S11303B044F483E0089582E0089584E0089582E09F
S11303C0089584E0089585B7806885BF80B780620A
S11303D080BF08958FE190E00E94A7030E94E3018B
S11303E00E94450187B38C7F87BB0E94BD020E9497
S11303F00C036CEA73E08EE393E00E94DE0308953D
S11304000E94EA010E940C030E94A403FDCF8052C3
S113041090E0FC01EE0FFF1FEE0FFF1FE80FF91F26
S1130420E60FF11DE059FF4F859194910895CF9205
S1130430DF92EF92FF920F931F93CF93DF9300D03D
S113044000D000D0CDB7DEB70E940C038DE091E060
S11304500E94440486E0E7E0F1E0DE011196019099
S11304600D928A95E1F7CE0101967C0100E010E03F
S11304700F2EF5E2CF2EF1E0DF2EF02D8091420118
S11304809091430108171907B1F481E00E94A10378
S1130490DF92CF920E942904F70181818F9380819A
S11304A08F930E94290480E00E94A1030F900F9073
S11304B00F900F900FC0DF92CF920E942904F70192
S11304C081818F9380818F930E9429040F900F90D4
S11304D00F900F908AE090E00E943D040F5F1F4F41
S11304E0F2E0EF0EF11C0330110541F60E94B60153
S11304F0823019F08330D1F02FC0909106019430EE
S113050059F52091420130914301121613063CF42F
S11305102150310930934301209342011DC022E050
S113052030E0309343012093420116C090910601BC
S1130530943091F4209142013091430122303105ED
S11305403CF42F5F3F4F309343012093420104C09A
S113055010924301109242018093060126960FB631
S1130560F894DEBF0FBECDBFDF91CF911F910F91E5
S1130570FF90EF90DF90CF900895E0E0F0E18EEAF5
S1130580808381EA80838AED808382E1808388ECA2
S1130590808388EA80838FE3808385ED808380E88D
S11305A0808381E8808380E5808389ED808381E294
S11305B0808380E2808382E080838BED808380E38C
S11305C080838DEA8083108284EA808386EA808334
S11305D08FEA80830895883090F490E09C01205540
S11305E03F4FE0E0F0E12083108220E120839093EC
S11305F048018093470110924601109245010895E5
S11306000E94EB0280E890E0E0E0F2E121E0208348
S113061001970097E1F70895CF93C0E08C2F0E94D3
S11306200003CF5FC830D1F7CF910895DF92EF92E6
S1130630FF920F931F93CF93DF9391E02091440196
S1130640213009F090E0D92ED194C0E0D0E0E82E1A
S1130650F12C00E012E1BE01C7010E9407028D25C2
S1130660F80180832196C530D105A9F7DF91CF9198
S11306701F910F91FF90EF90DF9008951F93CF93F8
S1130680DF93182F8A3041F02091450130914601C3
S11306902D3731050CF44EC02091470130914801AB
S11306A02F5F3F4F27703078332334F421503109C2
S11306B0286F3F6F2F5F3F4F3093480120934701CE
S11306C020914501309146012038310544F4E0E0A1
S11306D0F2E110822F5F3F4F20383105D1F7C7E494
S11306E0D1E088810E94EB0281E60E94B1038881F7
S11306F0805D0E94B1038AE00E94B103109246011A
S113070010924501812F0E94B1031A3081F0812F8C
S11307100E94160320914501309146012B5F3F4F03
S11307203093460120934501812F90E006C08AE072
S113073090E003C00E94B103EACFDF91CF911F91F3
S113074008958093440108950E941702089590BD6E
S113075089B988E18AB908955F9BFECF8CB190E096
S113076008955D9BFECF8CB990E0089597FB072E0A
S113077016F4009407D077FD09D00E94CA0307FC41
S113078005D03EF4909581959F4F0895709561959D
S11307907F4F0895AA1BBB1B51E107C0AA1FBB1FB3
S11307A0A617B70710F0A61BB70B881F991F5A95F9
S11307B0A9F780959095BC01CD0108950F931F93DF
S11307C0CF93DF93EC018B01009731F46115710530
S11307D019F480E090E038C06EE070E081E090E0D1
S11307E00E944306FC010097A1F380E8838301156E
S11307F0110571F01387028781E883838091510189
S113080090915201892B21F4F0935201E09351010C
S11308102097C9F0D187C0878381826083838091C8
S1130820530190915401892B71F4F0935401E09396
S113083053018091550190915601892B21F4F09335
S11308405601E0935501CF01DF91CF911F910F9194
S11308500895A0E0B0E0EFE2F4E00C944308FE0158
S1130860359661917191AF0180915301909154013A
S11308700E947104E2E00C945F086091530170914E
S113088054010E94A30708950F931F93CF93DF93FE
S1130890E0915301F0915401238121FF1BC0EC012D
S11308A000E010E089916091530170915401DB01E3
S11308B01896ED91FC911997882331F00995892BAD
S11308C089F30FEF1FEFEECF8AE00995892B11F41E
S11308D0C80102C08FEF9FEFDF91CF911F910F915D
S11308E00895ACE0B0E0E7E7F4E00C9433087C0151
S11308F06B018A01FC0117821682838181FFBDC1CD
S1130900CE0101964C01F7019381F60193FD859187
S113091093FF81916F01882309F4ABC1853239F4C7
S113092093FD859193FF81916F01853229F4B7017D
S113093090E00E94A307E7CF512C312C20E0203215
S1130940A0F48B3269F030F4803259F0833269F4C8
S113095020612CC08D3239F0803339F4216026C0F7
S11309602260246023C0286021C027FD27C030ED09
S1130970380F3A3078F426FF06C0FAE05F9E300D57
S11309801124532E13C08AE0389E300D1124332EC7
S113099020620CC08E3221F426FD6BC1206406C097
S11309A08C3611F4206802C0883641F4F60193FDB8
S11309B0859193FF81916F018111C1CF982F9F7D04
S11309C09554933028F40C5F1F4FFFE3F9830DC057
S11309D0833631F0833771F0833509F05BC022C070
S11309E0F801808189830E5F1F4F44244394512C66
S11309F0540115C03801F2E06F0E711CF801A0809B
S1130A00B18026FF03C0652D70E002C06FEF7FEF59
S1130A10C5012C870E9498072C0183012C852F7710
S1130A20222E17C03801F2E06F0E711CF801A0806D
S1130A30B18026FF03C0652D70E002C06FEF7FEF29
S1130A40C5012C870E9486072C012C852068222E44
S1130A50830123FC1BC0832D90E048165906B0F493
S1130A60B70180E290E00E94A3073A94F4CFF50125
S1130A7027FC859127FE81915F01B70190E00E94D8
S1130A80A30731103A94F1E04F1A5108411451046C
S1130A9071F7E5C0843611F0893639F5F80127FF7E
S1130AA007C060817181828193810C5F1F4F08C0F0
S1130AB060817181882777FD8095982F0E5F1F4F85
S1130AC02F76B22E97FF09C0909580957095619509
S1130AD07F4F8F4F9F4F2068B22E2AE030E0A40151
S1130AE00E94D507A82EA81844C0853729F42F7E64
S1130AF0B22E2AE030E025C0F22FF97FBF2E8F36C8
S1130B00C1F018F4883579F0B4C0803719F088370B
S1130B1021F0AFC02F2F2061B22EB4FE0DC08B2D5B
S1130B208460B82E09C024FF0AC09F2F9660B92E96
S1130B3006C028E030E005C020E130E002C020E13A
S1130B4032E0F801B7FE07C0608171818281938130
S1130B500C5F1F4F06C06081718180E090E00E5FE2
S1130B601F4FA4010E94D507A82EA818FB2DFF77BC
S1130B70BF2EB6FE0BC02B2D2E7FA51450F4B4FE51
S1130B800AC0B2FC08C02B2D2E7E05C07A2C2B2D5A
S1130B9003C07A2C01C0752C24FF0DC0FE01EA0DA0
S1130BA0F11D8081803311F4297E09C022FF06C023
S1130BB07394739404C0822F867809F0739423FD90
S1130BC013C020FF06C05A2C731418F4530C571882
S1130BD0732C731468F4B70180E290E02C870E94B0
S1130BE0A30773942C85F5CF731410F4371801C040
S1130BF0312C24FF12C0B70180E390E02C870E94BF
S1130C00A3072C8522FF17C021FF03C088E590E0CD
S1130C1002C088E790E0B7010CC0822F867859F0B3
S1130C2021FD02C080E201C08BE227FD8DE2B70105
S1130C3090E00E94A307A51438F4B70180E390E084
S1130C400E94A3075A94F7CFAA94F401EA0DF11D68
S1130C508081B70190E00E94A307A110F5CF332053
S1130C6009F451CEB70180E290E00E94A3073A94C0
S1130C70F6CFF7018681978102C08FEF9FEF2C9604
S1130C80E2E10C944F080F931F93CF93DF93869F59
S1130C908001879F100D969F100D1124C8010E949A
S1130CA05F06EC01009729F0A80160E070E00E9463
S1130CB09107CE01DF91CF911F910F910895CF93AA
S1130CC0DF938230910510F482E090E0E0915901C5
S1130CD0F0915A0120E030E0A0E0B0E0309739F123
S1130CE04081518148175907B8F04817590771F4E2
S1130CF082819381109729F013969C938E93129777
S1130D002CC090935A018093590127C021153105B5
S1130D1031F04217530718F0A901DB0101C0EF01BC
S1130D209A01BD01DF010280F381E02DD7CF2115A7
S1130D303105F9F0281B390B2430310580F48A8100
S1130D409B816115710521F0FB019383828304C0AB
S1130D5090935A0180935901FE01329644C0FE01DA
S1130D60E20FF31F81939193225031093983288331
S1130D703AC02091570130915801232B41F420911E
S1130D8002013091030130935801209357012091BF
S1130D900001309101012115310541F42DB73EB711
S1130DA04091040150910501241B350BE09157013A
S1130DB0F0915801E217F307A0F42E1B3F0B2817FC
S1130DC0390778F0AC014E5F5F4F2417350748F0C0
S1130DD04E0F5F1F50935801409357018193919395
S1130DE002C0E0E0F0E0CF01DF91CF910895CF930E
S1130DF0DF93009709F487C0FC01329713821282B3
S1130E00C0915901D0915A01209781F420813181F8
S1130E10280F391F80915701909158018217930729
S1130E2079F5F0935801E09357016DC0DE0120E09D
S1130E3030E0AE17BF0750F412964D915C911397B2
S1130E409D014115510509F1DA01F3CFB383A28362
S1130E5040815181840F951F8A179B0771F48D91EE
S1130E609C911197840F951F02969183808312960B
S1130E708D919C911397938382832115310529F4D5
S1130E80F0935A01E09359013EC0D9011396FC93A3
S1130E90EE9312974D915D91A40FB51FEA17FB07CE
S1130EA079F480819181840F951F0296D90111965E
S1130EB09C938E938281938113969C938E93129725
S1130EC0E0E0F0E08A819B81009719F0FE01EC01DB
S1130ED0F9CFCE01029628813981820F931F209188
S1130EE05701309158012817390769F4309729F4CC
S1130EF010925A011092590102C013821282D093A7
S1130F005801C0935701DF91CF910895FC010590DA
S1130F10615070400110D8F7809590958E0F9F1FF7
S1130F200895DC0101C06D9341505040E0F70895ED
S1130F30FC016150704001900110D8F780959095A4
S1130F408E0F9F1F08950F931F93CF93DF93182F36
S1130F50092FEB018B8181FD03C08FEF9FEF20C030
S1130F6082FF10C04E815F812C813D81421753075F
S1130F707CF4E881F9819F012F5F3F4F39832883F7
S1130F80108306C0E885F985812F0995892B29F7F7
S1130F902E813F812F5F3F4F3F832E83812F902FE0
S1130FA0DF91CF911F910F910895FA01AA2728305C
S1130FB051F1203181F1E8946F936E7F6E5F7F4F22
S1130FC08F4F9F4FAF4FB1E03ED0B4E03CD0670F9E
S1130FD0781F891F9A1FA11D680F791F8A1F911DF1
S1130FE0A11D6A0F711D811D911DA11D20D009F441
S1130FF068943F912AE0269F11243019305D319383
S1131000DEF6CF010895462F4770405D4193B3E06B
S11310100FD0C9F7F6CF462F4F70405D4A3318F012
S1131020495D31FD4052419302D0A9F7EACFB4E0C3
S1131030A6959795879577956795BA95C9F700977B
S11310406105710508959B01AC010A2E069457951C
S1131050479537952795BA95C9F7620F731F841F73
S1131060951FA01D08952F923F924F925F926F9209
S11310707F928F929F92AF92BF92CF92DF92EF9224
S1131080FF920F931F93CF93DF93CDB7DEB7CA1BA5
S1131090DB0B0FB6F894DEBF0FBECDBF09942A88D0
S11310A0398848885F846E847D848C849B84AA8478
S11310B0B984C884DF80EE80FD800C811B81AA8105
S11310C0B981CE0FD11D0FB6F894DEBF0FBECDBFD0
S10B10D0ED010895F894FFCF2F
S11310D800005B012000042A01310138012020208E
S11310E82020202020204D41494E204D454E55209A
S11310F8202020202020202020004F4E4520202082
S11311080054574F202020005448524545202020A1
S10511180000D1
S9030000FC
